:100000000C9434000C943E000C943E000C943E0082
:100010000C943E000C943E000C943E000C943E0068
:100020000C943E000C943E000C943E000C943E0058
:100030000C943E000C943E000C943E000C943E0048
:100040000C943E000C943E000C943E000C943E0038
:100050000C943E000C943E000C943E000C943E0028
:100060000C943E000C943E0011241FBECFEFD8E04C
:10007000DEBFCDBF0E9440000C945D000C940000D8
:10008000219A2798299889B190E0880F892F881F95
:10009000990B813059F4299A2FEF83ED90E3215089
:1000A00080409040E1F700C0000029988FE99FE070
:0E00B0000197F1F700C00000E6CFF894FFCFF3
:00000001FF
